S01500005265666C6F772D412D54726F6E2E7372656362
S11300000C9438000C9455000C9455000C94550035
S11300100C9455000C9455000C9455000C94550008
S11300200C9455000C9455000C9455000C945500F8
S11300300C9455000C94BA000C9455000C94550083
S11300400C9455000C9455000C9455000C945500D8
S11300500C94FF000C9429010C9455000C94550049
S11300600C9455000C9455000C9455000C945500B8
S113007011241FBECFEFD0E1DEBFCDBF11E0A0E061
S1130080B1E0EAEAF2E002C005900D92A030B107B7
S1130090D9F721E0A0E0B1E001C01D92A230B2077F
S11300A0E1F70E9457000C9453010C940000FFCF19
S11300B0FC01868197812481358128173907C1F095
S11300C020813181D901A80FB91F8C91DB018C9358
S11300D0868197810196228133818217930721F4C7
S11300E01782168281E008959783868381E00895BC
S11300F080E00895FC01448155814F5F5F4F828108
S113010093814817590718F460E070E003C040E099
S113011050E0BA0186819781A0E0B0E04817590702
S11301206A077B0729F0342F252F862F972F04C0C9
S11301303FEF2FEF8FEF9FEF632F722F08951F93E1
S1130140CF93DF93EC01162F0E947A0099236CF071
S113015028813981F901E60FF71F1083CE010E942F
S11301607A007D836C8381E001C080E0DF91CF91D0
S11301701F9108951F920F920FB60F9211248F931F
S113018083B78E7F83BF8F910F900FBE0F901F9008
S11301901895CF93DF93EC016091C60086519C4F74
S11301A00E949F00811104C0C650DC4F81E0888307
S11301B0DF91CF910895E1ECF0E080818F7D808321
S11301C008950F931F93CF93DF931F92CDB7DEB79C
S11301D08C011982BE016F5F7F4F86519C4F0E9434
S11301E05800811103C0C8010E94DB0089818093FB
S11301F0C6000F90DF91CF911F910F9108951F9228
S11302000F920FB60F9211242F933F934F935F9346
S11302106F937F938F939F93AF93BF93EF93FF93CA
S11302208091000190910101009711F00E94C90092
S1130230FF91EF91BF91AF919F918F917F916F91BA
S11302405F914F913F912F910F900FBE0F901F9090
S113025018951F920F920FB60F9211242F933F936C
S11302604F935F936F937F938F939F93AF93BF93BA
S1130270EF93FF938091000190910101009711F099
S11302800E94E100FF91EF91BF91AF919F918F91F7
S11302907F916F915F914F913F912F910F900FBE7E
S10D02A00F901F901895F894FFCFFB
S9030000FC
